:020000020000FC
:0200000033C00B
:02000400F9C041
:02005400B9C031
:02002C00EEC024
:02003800E1C025
:1000680008E00EBF0FEF0DBF1ED017D07FD083D092
:1000780071D075D00CD005B1007F022B05B908B13D
:10008800007F032B08B93FD020D07894FFCF82D0CF
:1000980079D0D1E0CAE054E0089502E00093690005
:1000A80001E00DBB089500270AB904E00BB90FE081
:1000B80004B907B9002705B908B9089500916F0078
:1000C800026000936F0016E008950EE100938B0024
:1000D80003E800938A000EE10093890004E8009386
:1000E800880004E000936F000DE0009381000895FC
:1000F80042E004BD42E000936E004FEF00932700FA
:1001080045E005BD089504E600937C000BEA0093E2
:100118007A0005E000937B000895103021F43FD069
:1001280035D0313039F402913E911A953130A9F326
:10013800202F52C008951A3021F42CD023D031300A
:1001480041F43196119600813C911395313099F321
:10015800202F0895F2E0EAE3B1E0A0E008951AE064
:1001680005910D931A9509F0FBCF0895F2E0EEE2A0
:10017800B1E0AEE008951AE005910D931A9509F0E3
:10018800FBCF0895B1E0A0E03C910895B1E0AAE06A
:100198003C910895F1E0EEE010E020810895F1E04F
:1001A800E8E11AE020810895299301E00C935A951B
:1001B80008952AE483DF002700937A000DBB089591
:1001C80004E005BB00917900003019F00F3F19F0E9
:1001D80003C0A3DF01C0AFDF2F7005B1007F022B82
:1001E80005B944E0451B08B1007F042B08B91895F0
:1001F8007FDF18954A9904C0D7DF9DDF503001F49E
:1002080018950FE003B906B10F6006B91A9509F001
:1002180009C01091C00015FFFCCF2093C60000272D
:1002280000938100189500010203040506070809D8
:0C023800000000000000000000000000BA
:00000001FF
