:020000020000FC
:0200000033C00B
:02000400DEC05C
:02002400D0C04A
:02002C00E3C02F
:02005400A3C047
:1000680008E00EBF0FEF0DBF64D068D021D01AD0C2
:1000780005D055D040D00FD07894FFCF00E0009342
:10008800C50007E60093C40008ED0093C10006E030
:100098000093C200089559D0D1E0CAE054E020E0AE
:1000A80061E0089502E00093690001E00DBB089546
:1000B80000270AB904E00BB90FE004B907B9002713
:1000C80005B908B9089541E04093B00041E0409374
:1000D800700045E04093B10008954EE140938900D7
:1000E80044E84093880042E040936F004DE040931D
:1000F800810016E008950EE100938B0003E8009359
:100108008A000EE10093890004E80093880004E067
:1001180000936F000DE0009381000027089504E626
:1001280000937C0005E000937B000BEE00937A00BF
:100138000895F2E0E8E1B1E0A0E008951AE0059141
:100148000D931A9509F0FBCF0895B1E0A0E010E0F7
:100158003C910895B1E0A9E019E03C9108952993F4
:1001680041E04C930895193019F4EFDF303029F04D
:100178003D913C9113953130B1F3212F0895103002
:1001880019F4E8DF303021F03E911A953130B9F397
:10019800212F089500917900003021F00F3F39F0A8
:1001A80061E009C0613039F4EADF60E004C0613021
:1001B80011F4D9DF60E025B9189585DF18954A99BB
:1001C80014C044274093B100CADFCDDF5A9544E0FC
:1001D800451B48B9503049F42AE4442748B945B981
:1001E800002700937A000DBB78DF18954FE043B9DC
:1001F80046B14F6046B91A9509F009C00091C00090
:1002080005FFFCCF2093C600442740938100189532
:0A02180000000000000000000000DC
:00000001FF
