:020000020000FC
:0200000033C00B
:02000400D0C06A
:02002400C2C058
:02002C00C6C04C
:02003000C3C04B
:0200540092C058
:1000680008E00EBF0FEF0DBF55D059D012D00BD0FE
:1000780033D003D061E07894FFCF58D0D1E0CAE004
:1000880054E020E0089502E00093690001E00DBB10
:10009800089500270AB904E00BB90FE004B907B9BD
:1000A800002705B908B9089541E04093B00041E040
:1000B8004093700045E04093B10008954EE14093AD
:1000C800890044E84093880042E000936F004DE0C7
:1000D8004093810016E008950EE100938B0003E839
:1000E80000938A000EE10093890003E800938800DA
:1000F80004E000936F000DE000938100002708954D
:1001080004E600937C0005E000937B000BEE00936F
:100118007A000895F1E0E2EDB1E0A0E008951AE078
:1001280005910D931A9509F0FBCF0895B1E0A0E071
:1001380010E03C910895B1E0A9E019E03C910895E0
:10014800193021F4F3DF20E0303031F03D913C915B
:1001580013953130A9F3212F0895103021F4EBDFE6
:1001680029E0303029F03E911A953130B1F3212F32
:10017800089500917900003021F00F3F39F061E0D7
:1001880009C0613039F4E9DF60E004C0613011F47E
:10019800D7DF60E004E0051B08B925B9189584DFAE
:1001A80018954A9904C044274093B100329A18958B
:1001B80018954FE043B946B14F6046B91A9509F012
:1001C80003C04427409381001895000000000000F8
:0401D8000000000023
:00000001FF
