:020000020000FC
:0200000033C00B
:1000680008E00EBF0FEF0DBF01D007C04FE044B945
:100078004FE047B948B94427089501E300930501C3
:1000880002E30093060103E30093070104E30093EE
:10009800080103E30093000111E31093010122E337
:1000A8002093020134E33093030100C0D1E0C5E09E
:1000B80069917991899198816033E0F16A33D0F53B
:1000C8007033C0F17A33B0F58033A0F18A3390F5FC
:1000D800903380F19A3370F5671761F1681751F121
:1000E800691741F1781731F1791721F1981711F152
:1000F80000C000E0602F50E040E081E091E0B1E016
:10010800A0E02D91D1E0C5E070E03991231739F4D2
:10011800671719F4582B880F02C0492B990F73954C
:10012800743009F0F2CF6395643009F0EACF55B91D
:0801380048B901C0FFCFFFCF61
:00000001FF
