:020000020000FC
:0200000033C00B
:1000680008E00EBF0FEF0DBF01D007C04FE044B945
:100078004FE047B948B94427089501E300930501C3
:1000880002E30093060103E30093070104E30093EE
:10009800080101E30093000112E31093010123E337
:1000A8002093020134E33093030100C0D1E0C5E09E
:1000B80069917991899198816033C0F16A33B0F57B
:1000C8007033A0F17A3390F5803380F18A3370F57C
:1000D800903360F19A3350F5671741F1681731F1A1
:1000E800691721F1781711F1791701F19817F1F0D3
:1000F80000C000E0602F50E040E0B1E0A0E02D91AA
:10010800D1E0C5E070E03991231729F4671711F49D
:10011800539501C043957395743009F0F4CF6395F6
:10012800643009F0ECCF55B948B901C0FFCFFFCF13
:00000001FF
