:020000020000FC
:0200000033C00B
:1000680008E00EBF0FEF0DBF01D007C04FE044B945
:100078004FE047B948B94427089501E300930501C3
:1000880002E30093060103E30093070104E30093EE
:10009800080101E30093000112E31093010123E337
:1000A8002093020134E33093030100C0D1E0C5E09E
:1000B80069917991899198816033D0F16A33C0F55B
:1000C8007033B0F17A33A0F5803390F18A3380F53C
:1000D800903370F19A3360F5671751F1681741F161
:1000E800691731F1781721F1791711F1981701F192
:1000F80000C000E0602F40E050E0B1E0A0E02D91AA
:10010800D1E0C5E081E070E03991231729F4671741
:1001180011F4482B01C0582B880F7395743009F0DF
:10012800F3CF6395643009F0EACF45B958B901C0F7
:04013800FFCFFFCF27
:00000001FF
