:020000020000FC
:0200000033C00B
:02000400FAC040
:020024000AC10F
:02002C00E8C02A
:02005400C6C024
:020048001BC1DA
:020050005DC190
:1000680008E00EBF0FEF0DBF19D01ED00CD000E076
:10007800102E7894FFCF67D0D1E0CAE054E020E09A
:1000880001E0102E089500270AB904E00BB90FE02B
:1000980004B907B9002705B908B9089502E0009323
:1000A800690001E00DBB089540E007E64093C500F4
:1000B8000093C40008ED0093C10006E00093C2005D
:1000C800089541E04093B00041E04093700045E05E
:1000D8004093B10008950DE00093810002E0009381
:1000E8006F000EE10093890004E80093880016E091
:1000F80008950EE100938B0003E800938A000EE157
:100108000093890004E80093880004E000936F00DE
:100118000DE0009381000027089504E600937C0019
:1001280005E000937B000BEE00937A000895F3E05E
:10013800E8E2B1E0A0E008951AE005910D931A9560
:1001480009F0FBCF0895B1E0A0E010E03C910895DC
:10015800B1E0A9E019E03C910895199341E04C936E
:100168000895193019F4EFDF303029F03D913C91B2
:1001780013953130B1F30895103019F4E9DF3030B8
:1001880021F03E911A953130B9F3089560E050E0BE
:1001980040E081E091E0B1E0AAE02D91D1E0CEE02D
:1001A80070E03991231739F4671719F4582B880F21
:1001B80002C0492B990F7395743009F0F2CF6395FB
:1001C800643009F0EACF5F3011F0239403C0422D68
:1001D80003E0102E55B948B908950091790006300A
:1001E80018F00F3F19F003C0C7DF01C0BADF15B917
:1001F800189567DF18950FE003B906B10F6006B9C7
:100208001A9509F015C00091C00005FFFCCF209396
:10021800C60000270093810000E0101609F008C00E
:1002280086DF8ADF28DF79DF64DF00270093C100DB
:1002380018954A9920C044274093B10040E014160D
:1002480009F003C048DF2EE416C087DF8ADF5A951D
:1002580044E0451B48B9503071F426DF2AE44427AE
:1002680048B945B9002700937A000DBB02E0102E6B
:1002780001E0202E30DF189540E0141639F042E0F6
:10028800141651F043E0141689F13BC02091C600C2
:100298002E34B9F520DF35C02091C600203308F18F
:1002A8002A33F8F420532993339404E0301609F0E4
:1002B80028C0D1E0CEE0699179918991988167173A
:1002C80081F0681771F0691761F0781751F07917A4
:1002D80041F0981731F05ADF0027302ED1E0CEE0F8
:1002E80010C00027302ED1E0CEE00BC02091C60010
:1002F800223509F006C000E0102E002708B905B91C
:10030800CDDE189500E0101609F003C001E0102EAC
:1003180006C00027302ED1E0CEE002E0102E18955E
:0A03280000000000000000000000CB
:00000001FF
