:020000020000FC
:0200000033C00B
:02000400FCC03E
:0200240009C110
:02002C00EAC028
:02005400C8C022
:020048001AC1DB
:020050005EC18F
:1000680008E00EBF0FEF0DBF19D01ED00CD000E076
:10007800102E7894FFCF67D0D1E0CAE054E020E09A
:1000880001E0102E089500270AB904E00BB90FE02B
:1000980004B907B9002705B908B9089502E0009323
:1000A800690001E00DBB089540E007E64093C500F4
:1000B8000093C40008ED0093C10006E00093C2005D
:1000C800089541E04093B00041E04093700045E05E
:1000D8004093B10008950DE00093810002E0009381
:1000E8006F000EE10093890004E80093880016E091
:1000F80008950EE100938B0003E800938A000EE157
:100108000093890004E80093880004E000936F00DE
:100118000DE0009381000027089504E600937C0019
:1001280005E000937B000BEE00937A000895F3E05E
:10013800EAE2B1E0A0E008951AE005910D931A955E
:1001480009F0FBCF0895B1E0A0E010E03C910895DC
:10015800B1E0A9E019E03C910895299341E04C935E
:100168000895193019F4EFDF303029F03D913C91B2
:1001780013953130B1F3212F0895103019F4E8DFC9
:10018800303021F03E911A953130B9F3212F08957E
:1001980060E050E040E081E091E0B1E0AAE02D911C
:1001A800D1E0CEE070E03991231739F4671719F4DC
:1001B800582B880F02C0492B990F7395743009F09A
:1001C800F2CF6395643009F0EACF5F3011F02394E1
:1001D80003C0422D03E0102E55B948B90895009187
:1001E8007900063018F00F3F19F003C0C6DF01C0D0
:1001F800B8DF15B9189565DF18950FE003B906B192
:100208000F6006B91A9509F012C00091C00005FFE9
:10021800FCCF2093C60000270093810000E0101651
:1002280009F005C084DF88DF26DF77DF62DF1895F5
:100238004A9920C044274093B10040E0141609F0C1
:1002480003C049DF2EE416C088DF8BDF5A9544E0EF
:10025800451B48B9503071F427DF2AE4442748B9D0
:1002680045B9002700937A000DBB02E0102E01E08B
:10027800202E31DF189540E0141639F042E01416AC
:1002880059F043E0141699F13DC0339A2091C60005
:100298002E34C1F520DF36C02091C600203308F186
:1002A8002A33F8F420532993339404E0301609F0E4
:1002B80029C0D1E0CEE06991799189919881671739
:1002C80081F0681771F0691761F0781751F07917A4
:1002D80041F0981731F05CDF0027302ED1E0CEE0F6
:1002E80011C0349A0027302ED1E0CEE00BC0209107
:1002F800C600223509F006C000E0102E002708B914
:1003080005B9CCDE189500E0101609F003C001E02D
:10031800102E06C00027302ED1E0CEE002E0102ECD
:0C0328001895000000000000000000001C
:00000001FF
