:020000020000FC
:0200000033C00B
:02002C004AC0C8
:020048004EC0A8
:0200500051C09D
:1000680008E00EBF0FEF0DBF1AD00CD078940EE445
:100078000093C600FFCF0FE004B907B9002705B900
:1000880008B9089510E007E61093C5000093C4006E
:1000980008ED0093C10006E00093C20008950DE04A
:1000A8000093810002E000936F000EE10093890045
:1000B80004E80093880016E008950FE003B906B13C
:1000C8000F6006B91A9509F009C01091C00015FF14
:1000D800FCCF2093C600002700938100189532E0DA
:1000E8002091C6002E3409F4DADF189531E018950E
:1000F8004573746F20657320756E61207461626C3E
:0C0108006120636F6E7374616E7465009B
:00000001FF
